:0400000046EF00F0D7
:10000800FACF28F0FBCF29F0E1CF2AF0E2CF2BF08E
:10001800D9CF2CF0DACF2DF0F3CF2EF0F4CF2FF08C
:1000280019EE6BF0F0BAF0A403D0F2EC3BF019D063
:10003800F0B6F0A003D0F8EC3BF013D0F0B8F0A283
:1000480003D0F5EC3BF00DD0F2BC9DA005D09EA0EE
:1000580003D055EC39F005D0F2B6F2A002D084EC0A
:100068003BF02FC0F4FF2EC0F3FF2DC0DAFF2CC0E9
:10007800D9FF2BC0E2FF2AC0E1FF29C0FBFF28C03F
:10008800FAFF110016EEFEF0A2EF2DF0ECEC3BF0BB
:10009800020103B168EF05F06BC1D9FF6CC1DAFF4B
:1000A800DF500301A26FA239E832070BE80601E02E
:1000B800C7D002011D5101E0C3D001016D05030144
:1000C800A86F20D001016D516B250001E86F000E6B
:1000D80001016C210001E96F0301A8510001E85DED
:1000E800906FE951D8A0E905916F420E926F020E08
:1000F800936F09EC39F0100E0301A86502D0A85FD0
:1001080001D0A86BA851DEE1420E0001DA6F020EA1
:10011800DB6F6BC1DCF06CC1DDF001016D51FC0FD0
:100128000001DE6F1EEC34F0DAC0ABF3DBC0ACF3D9
:10013800DCC0ADF3DDC0AEF36BC16EF06CC16FF027
:100148006DC170F002EC36F06EC0A3F36FC0A4F37B
:1001580070C0A5F371C0A6F30301AB51A31909E15F
:10016800AC51A41906E1AD51A51903E1AE51A61988
:1001780011E0020102510F0B050A02E1B6EF38F057
:1001880002510F0B030AD8A41200F151D8B412007F
:10019800B6EF38F0020102510F0B030A03E1E351F5
:1001A8007FEC3AF06BC1AFF36CC1B0F3030120EE02
:1001B80007F0AF51D926B051DA22DECF1EF2DECFDA
:1001C8001FF2DECF20F2DECF21F220EE0CF0AF518D
:1001D800D926B051DA22DF500F0B0BEC35F00301B2
:1001E80020EE0BF0AF51D926B051DA22DF38070BD9
:1001F8000001646F030120EE0BF0AF51D926B05116
:10020800DA22DF500F0BA9EC3AF0AFC370F0B0C39D
:1002180071F001016D51F0EC18F0AFC3A4F0B0C358
:10022800A5F0FDEC2EF0E66AA9EC22F00201066BBF
:10023800076B086B096B0A6B0B6B0C6B0D6B120071
:100248000301A239E832070B030A07E0A239E832B2
:10025800070B050A02E04CEF31F00201A76B6BC1F6
:10026800B2F36CC1B3F3020E121901E08DD1030190
:1002780020EE01F0B251D926B351DA2202016251BF
:10028800DE1809E16351DE1806E16451DE1803E166
:100298006551DE18D8A478D104A576D1B2C364F02C
:1002A800B3C365F070EC30F0000907E102010251B8
:1002B800F00B0909026F81EF31F0030120EE06F01F
:1002C800B251D926B351DA22DECFE8F0DDCFE9F01A
:1002D800E8C06EF0E9C06FF00001706B716B01014E
:1002E8006D51FC0F0001726F490E736F010E746F30
:1002F800A0EC2BF0EF0E646F050E656FAB0E666F0A
:10030800010E676F696B100E686FCAEC33F0FF0E51
:10031800646F050E656F6BC166F06CC167F0FC0E0B
:1003280001016D250001686F696BFF0E6923CAEC36
:1003380033F0660ECC6F020ECD6FAB0ECE6F010E92
:10034800CF6FEF0ED06F050ED16F01016D510C0FFD
:100358000001D26F15EC0CF0AB0E646F030E656FE5
:10036800AB0E666F010E676F696B040E686FCAEC9F
:1003780033F06BC16EF06CC16FF06DC170F002ECC0
:1003880036F06EC0A3F36FC0A4F370C0A5F371C0BC
:10039800A6F30301A351AB1989E1A451AC1986E175
:1003A800A551AD1983E1A651AE1980E120EE06F002
:1003B800B251D926B351DA2202010E51DE5C0F5137
:1003C800DE5836E3030120EE06F0B251D926B351C8
:1003D800DA22DECFE8F0DDCFE9F002010E510001AC
:1003E800E85F02010F510001E95BE85102019E5DDF
:1003F8000001E95102019F590FE201016E516F118D
:1004080001E154D7000E0001646F656F666F050E39
:10041800676F01D84BD7ADD0030120EE06F0B2517B
:10042800D926B351DA22DECF0EF2DDCF0FF213D088
:10043800030120EE06F0B251D926B351DA22DE507C
:10044800DE10DBE102010E29D8E10F29D6E10E6B9F
:100458000F6B104B112B02010E2907E10F2905E143
:10046800102903E1112901E1C8D702510F0B080A2D
:1004780008E1E4517FEC3AF00201E5517FEC3AF0F3
:1004880007D002510F0B030A03E1E5517FEC3AF064
:10049800080E01016B27000E6C236D510001E86FF7
:1004A800E96B030120EE05F0B251D926B351DA22E7
:1004B800DF500F0B0001EA6FEB6B0C0EEA27000E02
:1004C800EB23E851EA1903E1E951EB193AE06BC172
:1004D800D9FF6CC1DAFFDF500301A06F01016B4B3C
:1004E8006C2B6D51F40F0301B16F190EA76F6BC11F
:1004F800A4F06CC1A5F0B1050001A66F010EA76FAD
:100508000EC2A8F00FC2A9F010C2AAF011C2ABF037
:10051800760EAC6F020EAD6FA7C3AEF0EF0EAF6FE5
:10052800050EB06F010EB16FC1EC20F0FF0E010196
:100538006B250301A96FFF0E01016C210301AA6F4E
:1005480004D00301B16BA96BAA6B02010383F00EFF
:10055800021701016E516F1101E1A8D6A9C364F019
:10056800AAC365F0B1C366F0010E0001676F01D838
:100578009DD605000101FA6E6E51FD6E6F51FE6E3B
:10058800F850FF6EFA501200030120EE01F0B2514C
:10059800D926B351DA2202011E51DE1809E11F5192
:1005A800DE1806E12051DE1803E12151DE1808E0CB
:1005B8004CEC31F0020E0201121901E177D612005B
:1005C800030120EE06F0B251D926B351DA22DECF6C
:1005D800E8F0DDCFE9F0E8C06EF0E9C06FF00001A7
:1005E800706B716B01016D51FC0F0001726F490E48
:1005F800736F746B010EA0EC2BF0EF0E646F050E99
:10060800656FAB0E666F010E676F696B100E686FD2
:10061800CAEC33F0FF0E646F050E656F6BC166F0B0
:100628006CC167F0FC0E01016D250001686F696BF4
:10063800FF0E6923CAEC33F0220ECC6F020ECD6F89
:10064800AB0ECE6F010ECF6FEF0ED06F050ED16FD0
:1006580001016D510C0F0001D26F15EC0CF0AB0EBF
:10066800646F030E656FAB0E666F010E676F696B83
:10067800040E686FCAEC33F06BC16EF06CC16FF09A
:100688006DC170F002EC36F06EC0A3F36FC0A4F336
:1006980070C0A5F371C0A6F30301A351AB1909E11A
:1006A800A451AC1906E1A551AD1903E1A651AE1943
:1006B80003E04CEC31F07ED720EE06F0B251D9269B
:1006C800B351DA2202010A51DE5C0B51DE5846E3CF
:1006D800030120EE06F0B251D926B351DA22DECF5B
:1006E800E8F0DDCFE9F002010A510001E85F0201FC
:1006F8000B510001E95BE85102019C5D0001E951E1
:1007080002019D591FE20091F00E021701016E517E
:100718006F1115E00201009B000E0001646F656F08
:10072800666F676F01D80BD005000101FA6E6E5134
:10073800FD6E6F51FE6EF850FF6EFA501200020106
:10074800039336D0030120EE06F0B251D926B351F7
:10075800DA22DECF0AF2DDCF0BF221D0030120EE40
:1007680006F0B251D926B351DA22DE50DE1014E178
:1007780002010A2911E10B290FE1030120EE06F01D
:10078800B251D926B351DA22DECF0AF2DDCF0BF20D
:1007980002010C4B0D2B03D04CEC31F00BD70201AE
:1007A8000A2909E10B2907E10C2905E10D2903E1D3
:1007B8000483020E01D702510F0B030A03E1E5512E
:1007C8007FEC3AF0010E0201D86FB2C364F0B3C3F4
:1007D80065F012EC33F0030120EE05F0B251D92692
:1007E800B351DA22DF500F0B1BE0080EB2250001CF
:1007F8007A6F000E0301B32100017B6F030120EE25
:1008080005F0B251D926B351DA22DF500F0B00019F
:100818007C6F01EC17F07AC06BF17BC06CF105D0EE
:10082800080E01016B27000E6C2301016D510001B8
:10083800E86FE96B030120EE05F0B251D926B351F8
:10084800DA22DF500F0B0001EA6FEB6B0C0EEA2780
:10085800000EEB23E851EA1904E1E951EB1901E133
:100868009BD06BC1D9FF6CC1DAFFDF500301A06FC9
:1008780001016B4B6C2B030120EE05F0B251D92618
:10088800B351DA22DF500F0B0001E86FE851010184
:100898006D5DF40F0301B16F20EE05F0B251D9265A
:1008A800B351DA22DF500F0B190FA76FA05129E0BF
:1008B8006BC1A4F06CC1A5F0B1050001A66F010ED3
:1008C800A76F0AC2A8F00BC2A9F00CC2AAF00DC209
:1008D800ABF0320EAC6F020EAD6FA7C3AEF0EF0EE9
:1008E800AF6F050EB06FB16BC1EC20F0FF0E0101C8
:1008F8006B250301A96FFF0E01016C210301AA6F8B
:100908004FD001016D510001E86FE96B030120EE42
:1009180005F0B251D926B351DA22DF500F0B00018E
:10092800EA6FEB6B0D0EEA27000EEB23E851EA5D48
:10093800EB51800AEC6FE951800AEC592DE26BC14A
:10094800A4F06CC1A5F00301B1050001A66F010E6A
:10095800A76F0AC2A8F00BC2A9F00CC2AAF00DC278
:10096800ABF0220EAC6F020EAD6FA7C3AEF0EF0E68
:10097800AF6F050EB06FB16BC1EC20F06BC17AF0B0
:100988006CC17BF00301B10500017C6F01EC17F02D
:100998007AC06BF17BC06CF10301B16BA96BAA6BD8
:1009A800010E0201D86FD06BD16BEE6B00990383F7
:1009B80000A14FD0030120EE05F0B251D926B35162
:1009C800DA22DFAA43D002010091F00E02170101DA
:1009D8006E516F1118E00201009BA9C364F0AAC30D
:1009E80065F0B1C366F0010E0001676F01D80BD046
:1009F80005000101FA6E6E51FD6E6F51FE6EF850E2
:100A0800FF6EFA5012000201039302BB00BBD2D55D
:100A180000B302D000A7CED5010E0001796FA10E58
:100A28007A6F030E7B6F0201ED51B1EC27F00009DC
:100A38000AE1000EE16FE26FE36FE46F2EEC2AF03B
:100A480002010097B7D50FEC22F0B4D517EC31F0BE
:100A5800B1D5F00E021701016E516F1118E00201B5
:100A6800009BA9C364F0AAC365F0B1C366F0010E88
:100A78000001676F01D80BD005000101FA6E6E51B5
:100A8800FD6E6F51FE6EF850FF6EFA5012000201B3
:100A980002BB00BB8FD500B302D000A78BD5010ED7
:100AA8000001796FA10E7A6F030E7B6F0201ED5181
:100AB800B1EC27F00009C7E1000EE16FE26FE36FC8
:100AC800E46F2EEC2AF0BCD701016E516F11D8B437
:100AD8001200E9EC3BF00001E86FE8B713D06BC1F6
:100AE80064F06CC165F06DC166F0030E676F0500B8
:100AF8000101FA6E6E51FD6E6F51FE6EF850FF6E79
:100B0800FA5012006BC164F06CC165F06DC166F0FB
:100B1800020E676F05000101FA6E6E51FD6E6F518E
:100B2800FE6EF850FF6EFA501200020103B1ABEFEF
:100B380009F00001C26BC36BC46BC56BC66BCB6994
:100B4800CC69CD69CE690201F16B0251F00B020943
:100B5800026FDAC2CFF000A50AD17D0E1725F66E16
:100B6800F76A7F0EF7220800F5CFA0F09851000130
:100B7800A025A16F000EA0BFFF0E02019921000160
:100B8800A26FA36BA46B0C0ED890A137A237A33722
:100B9800A437E82EF9D7A1C064F0A2C065F0A3C0BD
:100BA80066F0A4C067F07D0E686F696B6A6B6B6B4B
:100BB80035EC30F064C071F065C072F066C073F057
:100BC80067C074F00201E25144EC36F07D0E020178
:100BD8001C25F66EF76A7F0EF7220800F5CFA0F005
:100BE8009A510001A025A16F000EA0BFFF0E0201BF
:100BF8009B210001A26FA36BA46B0C0ED890A137A8
:100C0800A237A337A437E82EF9D7A1C064F0A2C051
:100C180065F0A3C066F0A4C067F07D0E686F696BCD
:100C28006A6B6B6B35EC30F064C071F065C072F0C4
:100C380066C073F067C074F00201E35144EC36F00B
:100C48000201E25135EC2EF00201E35135EC2EF0B1
:100C58009EC0A0F09FC0A1F00201DB510001A26F6D
:100C68000201DC510001A36FA46BA56BD60EA20391
:100C7800F3CFA6F0F4CFA7F0A86BA96BA303F350AA
:100C8800A727F450A823000EA9230B0EA203F350A4
:100C9800A727F450A823000EA923D60EA403F350C7
:100CA800A827F450A9230B0EA303F350A827F45048
:100CB800A923000EA203F350A827F450A923D60EA7
:100CC800A503F350A9270B0EA403F350A927000E80
:100CD800A303F350A927000EA203F350A927FF0E80
:100CE800A625AA6FFF0EA721AB6FFF0EA821AC6F38
:100CF800FF0EA921AD6FAA51A003F3CFAEF0F4CF38
:100D0800AFF0B06BB16BA103F350AF27F450B02331
:100D1800000EB123AB51A003F350AF27F450B0231A
:100D2800000EB123AB51A103F350B027F450B12307
:100D3800AC51A003F350B027F450B123AC51A10338
:100D4800F350B127AD51A003F350B127CF510E0D89
:100D5800080EF324D96E040EF420DA6EAEC0DEFF5E
:100D6800AFC0DEFFB0C0DEFFB1C0DEFF17D17D0E21
:100D78001725F66EF76A7F0EF7220800F5CFA0F068
:100D880094510001A025A16F000EA0BFFF0E020123
:100D980095210001A26FA36BA46B0C0ED890A1370C
:100DA800A237A337A437E82EF9D7A1C064F0A2C0B0
:100DB80065F0A3C066F0A4C067F07D0E686F696B2C
:100DC8006A6B6B6B35EC30F064C071F065C072F023
:100DD80066C073F067C074F00201E45144EC36F069
:100DE8007D0E02011C25F66EF76A7F0EF7220800B9
:100DF800F5CFA0F096510001A025A16F000EA0BF6D
:100E0800FF0E020197210001A26FA36BA46B0C0EC9
:100E1800D890A137A237A337A437E82EF9D7A1C0B5
:100E280064F0A2C065F0A3C066F0A4C067F07D0EB0
:100E3800686F696B6A6B6B6B35EC30F064C071F08E
:100E480065C072F066C073F067C074F00201E551C6
:100E580044EC36F00201E45135EC2EF00201125157
:100E680003E1E55135EC2EF09EC0A0F09FC0A1F043
:100E780022EEDBF0DECFA2F0DDCFA3F00001CF51F0
:100E88000E0D060EF324D96E040EF420DA6EDECFB2
:100E9800A4F0DDCFA5F0A451A66FA551A76FA86B4C
:100EA800A96BA629AA6F000EA721AB6F000EA82177
:100EB800AC6F000EA921AD6FAA51A203F3CFAEF01B
:100EC800F4CFAFF0B06BB16BA303F350AF27F4507E
:100ED800B023000EB123AB51A203F350AF27F45057
:100EE800B023000EB123AB51A303F350B027F45045
:100EF800B123AC51A203F350B027F450B123AC5145
:100F0800A303F350B127AD51A203F350B127FF0E4D
:100F1800AE25B26FFF0EAF21B36FFF0EB021B46FD5
:100F2800FF0EB121B56FB251A003F3CFB6F0F4CFE5
:100F3800B7F0B86BB96BA103F350B727F450B823D7
:100F4800000EB923B351A003F350B727F450B823C8
:100F5800000EB923B351A103F350B827F450B923B5
:100F6800B451A003F350B827F450B923B451A103E6
:100F7800F350B927B551A003F350B927CF510E0D3F
:100F8800080EF324D96E040EF420DA6EB6C0DEFF24
:100F9800B7C0DEFFB8C0DEFFB9C0DEFF0201E9510D
:100FA800BAEC39F0000901E1C8D00201E9517FEC3F
:100FB8003AF00201E95185EC36F08BC0C7F08CC0DD
:100FC800C8F08DC0C9F08EC0CAF0CA5107E11F0E23
:100FD800C75DAC0EC859DF0EC9594AE3C7C0A0F0B7
:100FE800C8C0A1F0C9C0A2F0CAC0A3F00D0E05D0B8
:100FF800D890A333A233A133A033E82EF9D77D0EBE
:10100800A003F3CFA4F0F4CFA5F0A66BA76BA103C0
:10101800F350A527F450A623000EA723A003F350EE
:10102800A527F450A623000EA7237D0EA203F35094
:10103800A627F450A723000EA103F350A627F450C7
:10104800A723000EA003F350A627F450A7237D0E74
:10105800A303F350A727000EA203F350A727000EFF
:10106800A103F350A727000EA003F350A72749D0E8
:10107800C7C0A0F0C8C0A1F0C9C0A2F0CAC0A3F000
:101088007D0EA003F3CFA4F0F4CFA5F0A66BA76B59
:10109800A103F350A527F450A623000EA723A0030D
:1010A800F350A527F450A623000EA7237D0EA20314
:1010B800F350A627F450A723000EA103F350A62748
:1010C800F450A723000EA003F350A627F450A7233B
:1010D8007D0EA303F350A727000EA203F350A72702
:1010E800000EA103F350A727000EA003F350A72773
:1010F8000D0E05D0D890A733A633A533A433E82E18
:10110800F9D7A4C0BAF0A5C0BBF0A6C0BCF0A7C070
:10111800BDF0BA510201C85D0001C36FBB510201A5
:10112800C9590001C46FBC510201CA590001C56FF9
:10113800BD510201CB590001C66FCF6BCF510E0DC7
:10114800040EF324D96E040EF420DA6EDE0401E0F6
:101158008ED0CF510E0D080EF324D96E040EF42054
:10116800DA6EDE50DE10DE10DE1001E180D0CF51E5
:101178000201DA194BE00001CF510E0D080EF324DD
:10118800D96E040EF420DA6EDE50C35DDE50C45909
:10119800DE50C559DE50C6592DE2CF510E0D080E4E
:1011A800F324D96E040EF420DA6EDECFA0F0DECF81
:1011B800A1F0DECFA2F0DECFA3F0C351A05DA46FF3
:1011C800C451A159A56FC551A259A66FC651A359BB
:1011D800A76FCF510E0D080EF324D96E040EF4201C
:1011E800DA6EA4C0DEFFA5C0DEFFA6C0DEFFA7C082
:1011F800DEFF0CD0CF510E0D080EF324D96E040E6D
:10120800F420DA6EDE6ADE6ADE6ADD6A0001CF513A
:101218000E0D080EF324D96E040EF420DA6EDE509B
:10122800CB5DDE50CC59DE50CD59DE50CE591FE390
:10123800CF510E0D080EF324D96E040EF420DA6E89
:10124800DE50DE10DE10DE1012E0CF510E0D080E5B
:10125800F324D96E040EF420DA6EDECFCBF0DECFA5
:10126800CCF0DECFCDF0DECFCEF0010EC26FCF2BAB
:101278000F0ECF6563D7C2055FE1CBC0C8F2CCC003
:10128800C9F2CDC0CAF2CEC0CBF2CE5106E1CB290D
:10129800FF0ECC590F0ECD5918E3CBC064F0CCC06B
:1012A80065F0CDC066F0CEC067F07D0E686F696BE3
:1012B8006A6B6B6B35EC30F00C0ED8906437653781
:1012C80066376737E82EF9D71FD0CBC0A0F0CCC05F
:1012D800A1F0CDC0A2F0CEC0A3F00C0ED890A037DC
:1012E800A137A237A337E82EF9D7A0C064F0A1C070
:1012F80065F0A2C066F0A3C067F07D0E686F696BE9
:101308006A6B6B6B35EC30F064C0BEF065C0BFF043
:1013180066C0C0F067C0C1F0BEC071F0BFC072F057
:10132800C0C073F0C1C074F00201E95144EC36F05A
:101338000201E95135EC2EF0020E02011219D8A46F
:1013480012000251F00B0809026F81EF31F0E9EC4D
:101358003BF00001A06FA0A911D0000E646F656F6B
:10136800666F020E676F05000101FA6E6E51FD6E21
:101378006F51FE6EF850FF6EFA50120001016E5167
:101388006F11D8B41200000E0001646F656F666FAC
:10139800030E676F05000101FA6E6E51FD6E6F5105
:1013A800FE6EF850FF6EFA5012008DC169F0000E03
:1013B8006A6F8FEC28F075C171F076C172F077C151
:1013C80073F078C174F021EC28F00101905163ECBE
:1013D80029F001018D0501E0B6D183C166F0390E0F
:1013E80017EC3AF097C17FF0010E00017F17010159
:1013F800D89096350001806F01018F39F00B0001FC
:1014080080117F11666F1D0E17EC3AF07EC07FF0D9
:10141800030E00017F1791C180F0010E8017D8904C
:101428008037D890803701018E39F00B0001801188
:101438007F11666F1E0E17EC3AF00101935194115B
:1014480060E093C182F094C183F00001846B856BE6
:1014580042D082C064F083C065F084C066F085C065
:1014680067F07D0E0001686F696B6A6B6B6B79ECD6
:101478002EF022D082C064F083C065F084C066F08C
:1014880085C067F0FA0E0001686F696B6A6B6B6B59
:1014980079EC2EF011D082C064F083C065F084C06E
:1014A80066F085C067F0F40E0001686F010E696F81
:1014B8006A6B6B6B79EC2EF064C082F065C083F0C8
:1014C80066C084F067C085F00FD00001826B836B23
:1014D800846B856B09D001018F51070ABAE00F0AA6
:1014E800C9E0010AD8E0F1D701018E2900017F6F18
:1014F80005D0D89085338433833382337F2FF9D74F
:1015080005D00001826B836B846B856B82C066F0AB
:10151800240E17EC3AF07DC066F01F0E17EC3AF077
:10152800260E30EC39F0866F0C0E01018E1906E19B
:10153800070E8F1909E0080E8F1906E00B0E8E1999
:1015480006E1070E8F1903E10001868702D000012A
:101558008697868586C066F0260E17EC3AF0310E1F
:1015680030EC39F0866FF80E8617030E861386C0A6
:1015780066F0310E17EC3AF00A0E0001666F370E6E
:1015880017EC3AF0120E0101A61929E1070E8F197E
:1015980003E0080E8F1915E1310E30EC39F0866F33
:1015A800869F86C066F0310E17EC3AF0400E0001B7
:1015B800666F2F0E17EC3AF00001666B300E17ECD1
:1015C8003AF0090E01018F190AE1310E30EC39F0B9
:1015D800866F868F86C066F0310E17EC3AF0330EB0
:1015E80030EC39F0866F869D868195C17FF0010EBB
:1015F8007F17060E806FD8907F37802FFCD77F51DA
:10160800861386C066F0330E17EC3AF095C17FF06A
:10161800010E00017F17D8907F37D8907F35FF0AD9
:101628001D0B866F86C066F03B0E17EC3AF0010181
:1016380082510001666F200E17EC3AF081C166F006
:10164800210E17EC3AF00001666B0D0E17EC3AF01C
:101658000001666B0E0E17EC3AF00001666B0F0E78
:1016680017EC3AF0120E0101A61968E1090E8F195C
:101678001EE1800E755D130E7659610E7759330E93
:10168800785915E37505F70E7659CB0E77593C0E48
:1016980078590DE2020E0001666F360E17EC3AF02B
:1016A800640E0001666F3A0E17EC3AF028D0090E66
:1016B8008F191FE1800E755D1A0E7659700E7759D5
:1016C800180E785916E3410E755DDD0E76594A0EEF
:1016D80077591F0E78590DE2020E0001666F360E1B
:1016E80017EC3AF07F0E0001666F3A0E17EC3AF0ED
:1016F80006D0030E0001666F360E17EC3AF0090E9D
:1017080001018F190FE195050DE1650E0001666F66
:101718003A0E17EC3AF0190E0001666F3B0E17EC03
:101728003AF00CD0650E0001666F3A0E17EC3AF0ED
:101738001D0E0001666F3B0E17EC3AF0000166695A
:10174800120E17EF3AF079C171F07AC172F07BC1CD
:1017580073F07CC174F04EEC32F07DC171F07EC143
:1017680072F07FC173F080C174F080EC32F0010137
:1017780082510001666F250E17EC3AF081C166F0C0
:10178800260E17EC3AF00A0E30EC39F0866F9F0EF1
:1017980086170101A839E846E00B0001861386C0C8
:1017A80066F00A0E17EC3AF0C80E0001866F0101C8
:1017B800915102E00001868986C066F0300E17EC70
:1017C8003AF00001816B0ED0840E8125D96EDA6A59
:1017D800010EDA22DF50666F8151280F17EC3AF0BC
:1017E8000001812B01018C510001815DEDE30101B4
:1017F8008C5108E08C0510090001666F270E17EC64
:101808003AF005D00001666B270E17EC3AF000019C
:1018180066693E0E17EC3AF0000166693F0E17EF55
:101828003AF00101656B646B626B606B616BCCC0F5
:10183800A4F0CDC0A5F0100E0001A66F010EA76F91
:10184800000EA86F010EA96F5BEC24F0D251D36F84
:10185800D46B0F0ED327000ED423040ED56FD435C6
:10186800D433D333D52FFBD7D3510101636F6351E1
:1018780004E1010E636F626B0AD0D2C0D3F00F0E81
:101888000001D317010ED8A4000E0101626F620592
:1018980041E1646B6351100DF350F00F656F1ED07A
:1018A800200E01016425D96EDA6A010EDA22100EC3
:1018B8006425E96EEA6A010EEA22EF500001D36F4F
:1018C800010165510001D025E96E000ED121EA6EB3
:1018D800EF50D319DF6E0101642B652B63510001B2
:1018E800D36FD46BD33BD43BF00ED417D3510F0B2B
:1018F800D413F00ED317010165510001D56FD66BD3
:10190800D351D55DD651800AD76FD451800AD759A3
:1019180063E2C6D70001D251D025D36F000ED12182
:10192800D46FD2510F0BD35D0101606F0001D45108
:10193800D8A0D4050101616F656B0001D2510F0B6E
:10194800010165610FD065516025D96E000E6121D6
:10195800DA6E300E6525E96EEA6A010EEA22DFCFFB
:10196800EFFF16D00001D2510F0B0101651909E1F3
:10197800300E6525D96EDA6A010EDA22800EDF6E26
:1019880007D0300E6525D96EDA6A010EDA22DF6AD1
:10199800652B0F0E6565D1D7656B200E6525D96E51
:1019A800DA6A010EDA22000E6525E96EEA6A010E8E
:1019B800EA22EF500001D36F300E01016525E96E70
:1019C800EA6A010EEA22EF500001D319DF6E010125
:1019D800652B0F0E6565E1D7500E0001646F010E8F
:1019E800656F676B666B696B100E686FE0EC38F0BB
:1019F8000101656B51D00101646B400E6425D96EFD
:101A0800DA6A010EDA2265510001D36FD46BD33B39
:101A1800D43BF00ED417D3510F0BD413F00ED317B9
:101A2800D0C0D5F0D1C0D6F0D351D527D451D623C4
:101A3800010164510001D525E96E000ED621EA6E38
:101A4800EF50D76F500E01016425E96EEA6A010E66
:101A5800EA22EF500001D719DF6E0101642B0F0E47
:101A68006465CBD7500E0001646F010E656F400EA0
:101A7800666F010E676F696B100E686FCAEC33F002
:101A8800500E906F010E916FCCC092F0CDC093F0C4
:101A980009EC39F00101652B0001D369D469010112
:101AA80063510001D56FD66BD351D527D451D623B6
:101AB800010165510001D76FD86BD551D75DD85159
:101AC800800AD96FD651800AD95995E30101656B0F
:101AD800400E6525D96EDA6A010EDA22200E6525D8
:101AE800E96EEA6A010EEA22EF500001D36F500E48
:101AF80001016525E96EEA6A010EEA22EF5000014C
:101B0800D319DF6E0101652B0F0E6565E1D7400E15
:101B18000001906F010E916FCCC092F0CDC093F090
:101B280009EC39F0CEC064F0CFC065F0400E666FA6
:101B3800010E676F696B100E686FCAEF33F0DC6FC8
:101B4800100E0001E06FDF6BDD0E646F656B676B75
:101B5800666B696B010E686FE0EC38F0E00E646F3D
:101B6800040E656F676B666B010E696F0F0E686F09
:101B7800E0EC38F0AB0E646F010E656F676B666B57
:101B8800696B100E686FE0EC38F0DC0507E1DD5199
:101B98001F0B8009DD6F0201008104D0DD511F0B8E
:101BA8004009DD6FFC0E0001DD17E30EDD17E00EC6
:101BB800E025D96EDA6A040EDA22DDC0DFFFE02BF9
:101BC800E00EE025646F656B040E65231E0E666FDC
:101BD800020E676F696B040E686FCAEC33F0040E6F
:101BE800E027DE6B020102AD30D00001DE8F02017A
:101BF800DF51EB5D29E20001DE8D02010089D04B47
:101C0800D12BA251D019D11102E1EE6B1AD0A251F9
:101C18000001DA6FDB6B0201D0510001DA5D0201CD
:101C2800D1510001DB590EE20201EE2BEE51A35D0A
:101C38000CE2EE6B00EC2DF0000907E10201D06B1D
:101C4800D16B0001DE9D02010099020100A304D0BE
:101C58000001DE8B020100930001DE990201A75109
:101C680004E0010169516A1104E1F00E0001DE1778
:101C780007D051EC2CF0DA6FDE19F00BDA19DE6FB1
:101C8800E00EE025D96EDA6A040EDA22DEC0DFFF44
:101C9800E02BE00EE025646F656B040E6523060EED
:101CA800666F020E676F696B020E686FCAEC33F0DD
:101CB800020EE0270201A7510FE0010169516A11E4
:101CC8000BE0E00E0001646F040E656FE00E666FB6
:101CD800010E676F22EC0FF0E00E0001E025D96ECF
:101CE800DA6A040EDA2266C1DFFFE02B01016951CE
:101CF8006A1131E0E00E0001E025646F656B040EA7
:101D0800652367C166F068C167F069C168F06AC198
:101D180069F0CAEC33F067C1A4F068C1A5F069C1E5
:101D2800A6F0A76B06C2A8F007C2A9F008C2AAF0DD
:101D380009C2ABF0320EAC6F020EAD6FE0C0AEF070
:101D4800E00EAF6F040EB06FB16BC1EC20F0010173
:101D5800695100012AD00201A75128E0EF0E0001C5
:101D6800646F050E656FDF0E666F676B22EC0FF010
:101D7800EF0EA46F050EA56FDFC0A6F0A76B06C215
:101D8800A8F007C2A9F008C2AAF009C2ABF0220E57
:101D9800AC6F020EAD6FE0C0AEF0E00EAF6F040E98
:101DA800B06FB16BC1EC20F0DF51E02706C26EF0D6
:101DB80007C26FF008C270F009C271F00001E0516B
:101DC800F00F726F490E736F000E746BA0EC2BF05E
:101DD800E00E646F040E656FAB0E666F010E676FE1
:101DE800696B100E686FCAEC33F0220ECC6F020ECE
:101DF800CD6FAB0ECE6F010ECF6FE00ED06F040E1D
:101E0800D16FE0C0D2F015EC0CF0E00EE025646F65
:101E1800656B040E6523AB0E666F010E676F696B09
:101E2800040E686FCAEC33F0040EE027F00EE025CC
:101E38000201D46FD56BFF0ED523FF0C6651D96E06
:101E4800DA6ADF506F6F6E6B66D1675101E148D176
:101E58006E51020DA80EF324D96E020EF420DA6E2C
:101E6800DE2801E13DD1FE0E686F69696E51020DF1
:101E7800A80EF324D96E020EF420DA6EDF506A6FD2
:101E88006B6B68516A2769516B23940E6A25F66E4D
:101E98007F0E6B21F76E0800F5506FC06CF06D6B0C
:101EA8006C27000E6D236651D96EDA6ADF506C5FBD
:101EB800000E6D5B6DBF14D16D5105E1100E6C5DA8
:101EC80001E32FD10DD12DD16F516425D96E000EAC
:101ED8006521DA6E030EDF6E6F2B6F516425D96EA4
:101EE800000E6521DA6EDF6A6E51020DA90EF32429
:101EF800D96E020EF420DA6EDFA009D000016F510E
:101F08006425D96E000E6521DA6E000EDB800001B3
:101F18006E51020DA90EF324D96E020EF420DA6E6A
:101F2800DFA208D06F516425D96E000E6521DA6EE4
:101F3800000EDB8200016E51020DA90EF324D96E4A
:101F4800020EF420DA6EDFA409D000016F51642577
:101F5800D96E000E6521DA6E000EDB8400016F2B4E
:101F6800D9D06F516425D96E000E6521DA6E050E41
:101F7800DF6E6F2B6F516425D96E000E6521DA6E06
:101F8800DF6A6E51020DA90EF324D96E020EF420F9
:101F9800DA6EDFA609D000016F516425D96E000EF4
:101FA8006521DA6E000EDB8000016E51020DA90E6C
:101FB800F324D96E020EF420DA6EDFA808D06F5130
:101FC8006425D96E000E6521DA6E000EDB820001F1
:101FD8006E51020DA90EF324D96E020EF420DA6EAA
:101FE800DFAABCD7B2D76F516425D96E000E652120
:101FF800DA6E060EDF6E6F2B6F516425D96E000EF8
:102008006521DA6EE0C2DFFF6F2BE6EC3BF0800A59
:10201800A00F05E3E6EC3BF0800A600F09E300013E
:102028006F516425D96E000E6521DA6E200E0AD034
:1020380000016F516425D96E000E6521DA6EE6EC59
:102048003BF03F0BDF6E8AD76F516425D96E000EC7
:102058006521DA6E070EDF6E6F2B6F516425D96E1E
:10206800000E6521DA6EDF6A6E51020DA90EF324A7
:10207800D96E020EF420DA6EDFAE09D000016F517E
:102088006425D96E000E6521DA6E000EDB80000132
:102098006E51020DA90EF324D96E020EF420DA6EE9
:1020A800DFAC5CD76F516425D96E000E6521DA6EFE
:1020B800000EDB8253D70201DD69DE6B00016E5131
:1020C800020DA80EF324D96E020EF420DA6E6F51B9
:1020D8006425E96E000E6521EA6EDFCFEFFF3ED77B
:1020E8006E51020DA80EF324D96E020EF420DA6E9A
:1020F800DF50020AE0E0010A01E1E6D6070ADEE065
:10210800010A01E12ED7030A01E16DD7010A9CE01B
:102118000F0AD4E06E2B0201A75100016E5D01E2A7
:1021280094D66651D96EDA6A6FC0DFFF12008F6BE2
:102138006C518F25D96EDA6A8F51750FE96EEA6A8C
:10214800DFCFEFFF8F2B0F0E8F65F2D70A0E476E8A
:10215800010E466E8F6B8F51750FD96EDA6ADF509C
:102168006D6F8F516A25D96E000E6B21DA6E6D5135
:10217800DF1A8F2B0F0E8F65EED78F6B8F516A2565
:10218800D96E000E6B21DA6EDF506D6F6E6B6D0EBF
:102198006D25F66E7E0E6E21F76E8F516A25D96E0B
:1021A800000E6B21DA6E0800F5CFDFFF8F2B0F0EC4
:1021B8008F65E4D76AC064F06BC065F0B5EC1EF0BB
:1021C800470401E111D18F6B8F516A256D6F000EA5
:1021D8006B216E6F6D29D96E000E6E21DA6EDF509D
:1021E8006F6F8F516A25D96E000E6B21DA6EDF5042
:1021F8006F198D6F8F516A256D6F000E6B216E6F91
:10220800030E6D25D96E000E6E21DA6EDF506F6FEA
:102218008F516A25706F000E6B21716F020E702549
:10222800D96E000E7121DA6EDF506F198E6F8D191D
:102238008B6F8F516A256D6F000E6B216E6F6D2944
:10224800D96E000E6E21DA6EDF506F6F8F516A25DE
:10225800706F000E6B21716F020E7025D96E000E23
:102268007121DA6EDF506F198C6F7F0E8D650CD07F
:102278001B0E8DC06DF06E6BD8906D376E376D1973
:10228800856F6E51866F05D0D8908D35856F866BBA
:10229800863785C08DF07F0E8C650CD01B0E8CC0E8
:1022A8006DF06E6BD8906D376E376D19876F6E5104
:1022B800886F05D0D8908C35876F886B883787C032
:1022C8008CF07F0E8E650CD01B0E8EC06DF06E6B81
:1022D800D8906D376E376D19896F6E518A6F05D03A
:1022E800D8908E35896F8A6B8A3789C08EF08F5166
:1022F8006A25D96E000E6B21DA6E8F516A25E96E58
:10230800000E6B21EA6EEF508B198D19DF6E8F511D
:102318006A256D6F000E6B216E6F6D29D96E000EE8
:102328006E21DA6E8F516A256F6F000E6B21706F08
:102338006F29E96E000E7021EA6EEF508B198C1927
:10234800DF6E8F516A256D6F000E6B216E6F020E66
:102358006D25D96E000E6E21DA6E8F516A256F6F6A
:10236800000E6B21706F020E6F25E96E000E702152
:10237800EA6EEF508B198E19DF6E8F516A256D6FDB
:10238800000E6B216E6F030E6D25D96E000E6E2147
:10239800DA6E8F516A256F6F000E6B21706F020E17
:1023A8006F25E96E000E7021EA6EEF50716F8F5144
:1023B8006A25726F000E6B21736F7229E96E000E29
:1023C8007321EA6EEF50746F8F516A25E96E000E23
:1023D8006B21EA6EEF50741971198B19DF6E040EB8
:1023E8008F270F0E8F65F0D6750E646FE3EC14F02F
:1023F8008F6B8F51750FD96EDA6ADF506D6F8F5101
:102408006A25D96E000E6B21DA6E6D51DF1A8F2B9B
:102418000F0E8F65EED74706475001E0AED6120083
:102428000A0EE126000EE222526853685468556885
:10243800FA0E52C0E3FFFB0E53C0E3FFFC0E54C07C
:10244800E3FFFD0E55C0E3FFFF0EE36AFE0EE36AED
:10245800FE0EE3500E0D040EF324D96E040EF42084
:10246800DA6EDE0401E0AAD0FE0EE3500E0D080E6F
:10247800F324D96E040EF420DA6EDE50DE10DE107E
:10248800DE1001E19BD0FE0EE3500E0D080EF32482
:10249800D96E040EF420DA6EDE500201C85DDE50FB
:1024A800C959DE50CA59DE50CB592FE2FE0EE3500F
:1024B8000E0D080EF324D96E040EF420DA6EDECF6A
:1024C80052F0DECF53F0DECF54F0DECF55F0C851D6
:1024D800525C4E6EC95153584F6ECA515458506E83
:1024E800CB515558516EFE0EE3500E0D080EF324D5
:1024F800D96E040EF420DA6E4EC0DEFF4FC0DEFF48
:1025080050C0DEFF51C0DEFF0DD0FE0EE3500E0DB1
:10251800080EF324D96E040EF420DA6EDE6ADE6A41
:10252800DE6ADD6AFE0EE3500E0D080EF324D96E46
:10253800040EF420DA6EFA0EE3CF4BF0DE504B5C5B
:10254800FB0EE3CF4BF0DE504B58FC0EE3CF4BF0C5
:10255800DE504B58FD0EE3CF4BF0DE504B582EE3C8
:10256800FE0EE3500E0D080EF324D96E040EF4206F
:10257800DA6EDE50DE10DE10DE1020E0FE0EE350D4
:102588000E0D080EF324D96E040EF420DA6EDECF99
:1025980052F0DECF53F0DECF54F0DECF55F0FA0E16
:1025A80052C0E3FFFB0E53C0E3FFFC0E54C0E3FF31
:1025B800FD0E55C0E3FFFF0EE36AE32AFE0EE32A91
:1025C800E3CF4BF00F0E4B6443D7FF0EE30401E05B
:1025D80096D0E150FA0FD96EE250DA6EFF0EDA2289
:1025E800DECFC8F2DECFC9F2DECFCAF2DECFCBF241
:1025F800FD0EE3500DE1FA0EE328FB0EE3CF4BF09E
:10260800FF0E4B5AFC0EE3CF4BF00F0E4B5A28E34C
:10261800E150FA0FD96EE250DA6EFF0EDA22DECF01
:1026280064F0DECF65F0DECF66F0DECF67F07D0EBA
:102638000001686F696B6A6B6B6B35EC30F064C0D6
:1026480052F065C053F066C054F067C055F00C0EE8
:10265800D8905236533654365536E82EF9D72CD002
:10266800FA0EE3CF52F0FB0EE3CF53F0FC0EE3CFAC
:1026780054F0FD0EE3CF55F00C0ED8905236533679
:1026880054365536E82EF9D752C064F053C065F079
:1026980054C066F055C067F07D0E0001686F696B25
:1026A8006A6B6B6B35EC30F064C052F065C053F068
:1026B80066C054F067C055F0F60E52C0E3FFF70E3F
:1026C80053C0E3FFF80E54C0E3FFF90E55C0E3FF13
:1026D800E150F60FD96EE250DA6EFF0EDA22DECF45
:1026E80071F0DECF72F0DECF73F0DECF74F002014E
:1026F800E95144EC36F00201E95135EC2EF0F50EC3
:10270800E126FF0EE222FF0C0001A969AA69AB6964
:10271800AC69020103B13CD102510F0B030A0EE16F
:10272800125105E10251F00B0409026F1200020E6A
:102738001219D8A41200E66ACAEF29F000B5B6EF5C
:1027480038F002A9120000A14FD0D951D75D34E367
:102758000251F00B0609026FA0510001A56F02019A
:10276800A1510001A66FA76BA86B0C0ED890A537D6
:10277800A637A737A837E82EF9D7A5C064F0A6C0B2
:1027880065F0A7C066F0A8C067F07D0E686F696B3A
:102798006A6B6B6B35EC30F064C071F065C072F039
:1027A80066C073F067C074F00201E85144EC36F07B
:1027B8000201E85135EF2EF04BEC3BF001016E5170
:1027C8006F11D8B41200000E0001646F656F666F58
:1027D800676F05000101FA6E6E51FD6E6F51FE6E56
:1027E800F850FF6EFA501200D851D65D01E2B7D00A
:1027F8000251F00B0609026F010EE2EC32F00009FB
:1028080019E1F00E946F040E956FD4C296F0F9ECAE
:1028180017F09451951107E10201D82B0251F00BE2
:102828000109026F120044EC3BF001016E516F1177
:10283800CAE11200AD6B5BD00001AD510E0D040E64
:10284800F324D96E040EF420DA6EDE044EE1AD51A5
:102858000E0D080EF324D96E040EF420DA6EDE5045
:10286800DE10DE10DE1041E0AD510E0D080EF3242F
:10287800D96E040EF420DA6EDE50A95DDE50AA5936
:10288800DE50AB59DE50AC5930E3AD510E0D050E9C
:10289800F324D96E040EF420DA6EDF500F0BA56F07
:1028A800A5510201DF5D21E30001AD510E0D050EBA
:1028B800F324D96E040EF420DA6EDF380F0BA56FFF
:1028C8000201DF510001A55D10E3AD510E0D080EA8
:1028D800F324D96E040EF420DA6EDECFA9F0DECF31
:1028E800AAF0DECFABF0DECFACF00001AD2BAD51DE
:1028F8000201ED5DA1E2A9C0A5F0AAC0A6F0ABC097
:10290800A7F0ACC0A8F00C0ED8900001A537A637E8
:10291800A737A837E82EF8D7000EA525646F200E34
:10292800A621656F030EA721666F000EA821676FA9
:102938007D0E686F696B6A6B6B6B35EC30F064C049
:1029480071F065C072F066C073F067C074F0020180
:10295800EA5144EC36F00201EA5135EF2EF044EC2E
:102968003BF001016E516F11D8B41200000E000146
:10297800646F656F666F010E676F05000101FA6E7F
:102988006E51FD6E6F51FE6EF850FF6EFA501200D8
:1029980001016E516F11D8B41200000E0001646F6E
:1029A800656F666F020E676F05000101FA6E6E5162
:1029B800FD6E6F51FE6EF850FF6EFA5012006451B2
:1029C800D96EDA6A0D0ED926DF50656F666B6D0E0B
:1029D8006525F66E7E0E6621F76E0800F5CF67F066
:1029E8006451D96EDA6A6751DF1A6451D96EDA6AAE
:1029F8000E0ED926DF50656F666B6D0E6525F66E77
:102A08007E0E6621F76E0800F5CF67F06451D96E27
:102A1800DA6AD92A6751DF1A6451D96EDA6A0F0E59
:102A2800D926DF50656F666B6D0E6525F66E7E0ED6
:102A38006621F76E0800F5CF67F06451D96EDA6A3F
:102A4800020ED9266751DF1A6451D96EDA6A0C0E64
:102A5800D926DF50656F666B6D0E6525F66E7E0EA6
:102A68006621F76E0800F5CF67F06451D96EDA6A0F
:102A7800030ED9266751DF1A6451D96EDA6A4650B7
:102A8800DF1A7F0E46640CD01B0E46C065F0666BDD
:102A9800D890653766376519686F6651696F05D0D4
:102AA800D8904634686F696B693768C046F06451DE
:102AB800D96EDA6ADF50656F6451D96EDA6A040E2E
:102AC800D9266551DF1A6451D96EDA6AD92ADF50DE
:102AD800656F6451D96EDA6A050ED9266551DF1A19
:102AE8006451D96EDA6A020ED926DF50656F6451D7
:102AF800D96EDA6A060ED9266551DF1A6451D96E85
:102B0800DA6A030ED926DF50656F6451D96EDA6A26
:102B1800070ED9266551DF1A6451D96EDA6A040E98
:102B2800D926DF50656F6451D96EDA6A080ED92646
:102B38006551DF1A6451D96EDA6A050ED926DF505D
:102B4800656F6451D96EDA6A090ED9266551DF1AA4
:102B58006451D96EDA6A060ED926DF50656F645162
:102B6800D96EDA6A0A0ED9266551DF1A6451D96E10
:102B7800DA6A070ED926DF50656F6451D96EDA6AB2
:102B88000B0ED9266551DF1A6451D96EDA6A080E20
:102B9800D926DF50656F6451D96EDA6A0C0ED926D2
:102BA8006551DF1A6451D96EDA6A090ED926DF50E9
:102BB800656F6451D96EDA6A0D0ED9266551DF1A30
:102BC8006451D96EDA6A0A0ED926DF50656F6451EE
:102BD800D96EDA6A0E0ED9266551DF1A6451D96E9C
:102BE800DA6A0B0ED926DF50656F6451D96EDA6A3E
:102BF8000F0ED9266551DF1A1200010198A506D0DB
:102C0800800E0001956F030E946F030C98C196F027
:102C1800030E0001961705E0800E956F040E946F61
:102C2800040C9451951107E1000E7E6F040E7D6F20
:102C3800D9EC09F006D094C07DF095C07EF0D9ECAF
:102C480009F001018D0511E1010E0001666F220EE8
:102C580017EC3AF00001666B400E17EC3AF00001F1
:102C6800666B410E17EC3AF014D0A9C166F0120E4B
:102C780017EC3AF0AAC166F0130E17EC3AF000010F
:102C8800666B400E17EC3AF00001666B410E17ECCC
:102C98003AF001019883E70E9817000194519511B5
:102CA80008E18DC169F0000E6A6F050E8FEC28F0FF
:102CB80041D001018D0509E1010E0001696F000E87
:102CC8006A6F060E8FEC28F035D0000E0001696F90
:102CD8006A6F050E8FEC28F000019451966F95519C
:102CE800976F986B996B0C0ED890963797379837E3
:102CF8009937E82EF9D796C064F097C065F098C068
:102D080066F099C067F07D0E686F696B6A6B6B6BD4
:102D180035EC30F064C071F065C072F066C073F0D5
:102D280067C074F001019D5144EC36F001019D51DA
:102D380035EC2EF001019F51A011A111A21159E00B
:102D4800A25106E19F29FF0EA0590F0EA15919E3C0
:102D58009FC164F0A0C165F0A1C166F0A2C167F08F
:102D68007D0E0001686F696B6A6B6B6B35EC30F038
:102D78000C0ED8906437653766376737E82EF9D771
:102D880020D09FC196F0A0C197F0A1C198F0A2C130
:102D980099F00C0ED89000019637973798379937E5
:102DA800E82EF8D796C064F097C065F098C066F032
:102DB80099C067F07D0E686F696B6A6B6B6B35EC59
:102DC80030F064C09AF065C09BF066C09CF067C0A4
:102DD8009DF09AC071F09BC072F09CC073F09DC0CA
:102DE80074F001019E5144EC36F001019E5135EC1E
:102DF8002EF00001946B956B12007F6B7AC080F007
:102E08007BC081F0DED00201A751020DA90EF32488
:102E1800D96E020EF420DA6EDF90A751020DA90ECA
:102E2800F324D96E020EF420DA6EDF92A751020D58
:102E3800A90EF324D96E020EF420DA6EDF94A7519E
:102E4800020DA90EF324D96E020EF420DA6EDF9675
:102E5800A751020DA90EF324D96E020EF420DA6EE2
:102E6800DF98A751020DA90EF324D96E020EF420A3
:102E7800DA6EDF9AA751020DA90EF324D96E020E5D
:102E8800F420DA6EDF9CA751020DA90EF324D96E47
:102E9800020EF420DA6EDF9E80C0D9FF81C0DAFF0F
:102EA800A751020DA80EF324E96E020EF420EA6E73
:102EB800DFCFEFFF60D080C064F081C065F015EC13
:102EC80038F064C080F065C081F00201A751020D9E
:102ED800A80EF324D96E020EF420DA6EDF6862D0F1
:102EE80080C071F081C072F0B5EC1AF071C080F04A
:102EF80072C081F057D080C064F081C065F070EC7A
:102F080034F064C080F065C081F04CD080C070F0AF
:102F180081C071F06BEC21F070C080F071C081F05D
:102F280041D080C064F081C065F0A3EC3BF064C080
:102F380080F065C081F036D080C070F081C071F03B
:102F4800D4EC19F070C080F071C081F02BD080C033
:102F580069F081C06AF043EC39F069C080F06AC05A
:102F680081F020D0010E7F6F7C517A25806F000E92
:102F78007B21816FAAD780C0D9FF81C0DAFF000109
:102F8800804B812BDF50020A96E0010AA9E0070A6C
:102F9800B2E0010ABBE0030AC4E0010ACDE00F0A6F
:102FA800D6E0E0D70201A751020DA80EF324D96E8E
:102FB800020EF420DA6EDE2804E0100EA76101D0BC
:102FC800A72B00017C517A257D6F000E7B217E6F37
:102FD8007D51805D7E51815903E27F5101E113D714
:102FE80080C07AF081C07BF01200010198A506D05C
:102FF800800E0001956F030E946F030C98C197F033
:10300800030E0001971705E0800E956F040E946F6C
:10301800040C01018D5109E1400E0001966505D0AF
:10302800800E956F020E946F020C01019C517FEC8B
:103038003AF0000E7E6F040E7D6FD9EC09F00101A5
:103048008D0523E196C066F0220E17EC3AF00A0EC1
:1030580030EC39F0A36FF00EA317A387A3C066F076
:103068000A0E17EC3AF0400E0001666F17EC3AF0C2
:103078000001666B410E17EC3AF08DC169F0010E44
:1030880000016A6F8FEC28F00AD00001666B400ED1
:1030980017EC3AF00001666B410E17EC3AF00101AB
:1030A8008D5105E196C066F0000E17EC3AF001EC80
:1030B8003CF0800EBCEC3BF00001A46B0BD0A4519B
:1030C8009425D96E000E9521DA6EDF50BCEC3BF0EA
:1030D8000001A42B9651A45DF2E3FFEC3BF0010143
:1030E8009881E70E98178DC169F0000E00016A6F8C
:1030F800030E8FEC28F00001716B726B0A0E736F70
:10310800746B01019C5144EC36F001019C5135EC83
:103118002EF001019F51A011A111A21159E0A25155
:1031280006E19F29FF0EA0590F0EA15919E39FC16F
:1031380064F0A0C165F0A1C166F0A2C167F07D0E80
:103148000001686F696B6A6B6B6B35EC30F00C0EC5
:10315800D8906437653766376737E82EF9D720D0B7
:103168009FC197F0A0C198F0A1C199F0A2C19AF0AF
:103178000C0ED89000019737983799379A37E82E70
:10318800F8D797C064F098C065F099C066F09AC007
:1031980067F07D0E686F696B6A6B6B6B35EC30F0AE
:1031A80064C09FF065C0A0F066C0A1F067C0A2F03F
:1031B8009FC071F0A0C072F0A1C073F0A2C074F0FB
:1031C80001019E5144EC36F001019E5135EC2EF080
:1031D8000001946B956B12000001746F210E741935
:1031E800D8A41200030E796F7A6B756B766B776BC8
:1031F800786B750E646F656B7A51030D70C072F051
:1032080071C073F0F3507227F45073230D0E7227B8
:10321800000E73237251666F676B696B030E686FDC
:10322800CAEC33F075C064F076C065F077C066F01C
:1032380078C067F0640E686F696B6A6B6B6B79ECCA
:103248002EF064C075F065C076F066C077F067C090
:1032580078F0755176117711781101E194D075C025
:1032680064F076C065F077C066F078C067F070ECFF
:1032780033F0000901E08CD07A510E0D000E726F08
:10328800040E736FF3507227F450732379510E0DA7
:10329800F3507225D96EF4507321DA6E75C0DEFFD3
:1032A80076C0DEFF77C0DEFF78C0DEFF7A510E0DF4
:1032B800000E726F040E736F050E7227000E7323D3
:1032C800F3507227F450732379510E0DF350722581
:1032D800D96EF4507321DA6EDF500F0B5009DF6E90
:1032E80000017A510E0D000E726F040E736F050EF9
:1032F8007227000E7323F3507227F4507323795109
:103308000E0DF3507225D96EF4507321DA6EF00E5B
:10331800DF167A510E0D000E726F040E736F060ED3
:103328007227000E7323F3507227F45073237951D8
:103338000E0DF3507225D96EF4507321DA6EE70E34
:10334800DE6E030EDD6E7A510E0D000E726F040EE6
:10335800736F0D0E7227000E7323F3507227F4500B
:10336800732379510E0DF3507225D96EF4507321E1
:10337800DA6EDF68010E686F7A51792575EC37F0DF
:103388000201038705D0686B7A51792575EC37F00F
:1033980000017A2B040E7A6528D702010387040CF2
:1033A80070C0D9FF71C0DAFFDF50776F704B712B97
:1033B80070C0D9FF71C0DAFFFF0EDE14736FFF0E05
:1033C800DE14746FFF0EDE14756F000EDE14766F58
:1033D80073C064F074C065F075C066F076C067F0BD
:1033E800640E686F696B6A6B6B6B79EC2EF064C066
:1033F80073F065C074F066C075F067C076F0030EB0
:103408007027000E712370C0D9FF71C0DAFFDF503A
:10341800726F704B712B646B7751F9EC39F00009BE
:103428002BE173C064F074C065F075C066F076C0B7
:1034380067F070EC33F0000905E0735174117511F1
:1034480076110AE10201A751020DA90EF324D96EE3
:10345800020EF420DA6EDF8E00017251C8EC37F0EC
:1034680000090AE10201A751020DA90EF324D96E41
:10347800020EF420DA6EDF8C0201A751020DA90EAC
:10348800F324D96E020EF420DA6EDFAE65D0A751B0
:10349800020DA90EF324D96E020EF420DA6EDFAC09
:1034A8005BD0100EDA6129D00001735174117511C7
:1034B80076111EE073C064F074C065F075C066F0E4
:1034C80076C067F077513CEC37F072C064F0775102
:1034D8005AEC25F0010E0001656F2E0E646F7751CE
:1034E800FCEC37F0010E646F7751D8EC23F032D042
:1034F800686B775175EC37F02DD00001735174115A
:103508007511761122E073C064F074C065F075C05F
:1035180066F076C067F07751100F3CEC37F072C058
:1035280064F07751100F5AEC25F0010E0001656F19
:103538002E0E646F7751100FFCEC37F0010E646F9C
:103548007751100FD8EC23F005D0686B7751100F26
:1035580075EC37F00201038770C070F071C071F02C
:10356800120071C0D9FF72C0DAFFDF500F0B766FFF
:1035780071C0D9FF72C0DAFFDF50736F73390F0B58
:10358800796F714B722B71C0D9FF72C0DAFFDECF31
:1035980074F0DDCF75F0020E7127000E722371C032
:1035A80077F072C078F0714B722B020102AD92D0A5
:1035B80077C0D9FF78C0DAFF0001DF38070BF3ECDA
:1035C8003AF0000912E174C064F075C065F091EC3E
:1035D80037F000090AE10201A751020DA90EF324F0
:1035E800D96E020EF420DA6EDF80000179511FECEB
:1035F8003BF0000912E10201EB510001795D0DE396
:1036080079510201EC5D09E3A751020DA90EF324DB
:10361800D96E020EF420DA6EDF820001765178EC62
:1036280039F000090AE10201A751020DA90EF3249D
:10363800D96E020EF420DA6EDF840201A751020D62
:10364800A90EF324D96E020EF420DA6EDFA45DD041
:10365800A751020DA90EF324D96E020EF420DA6EDA
:10366800DFA253D0A751020DA90EF324D96E020E82
:10367800F420DA6EDFA049D074C06EF075C06FF028
:1036880077C0D9FF78C0DAFF0001DF38070B706F09
:103698000AEC3BF07651C5EC3BF0020103890001CE
:1036A8007951C9EC3BF077C0D9FF78C0DAFF000147
:1036B800DF500F0B03E10201D66B0AD077C0D9FFA8
:1036C80078C0DAFFDF500F0B736F73050201D66FF6
:1036D800038B1BD0A751020DA90EF324D96E020E3D
:1036E800F420DA6EDF90A751020DA90EF324D96EEB
:1036F800020EF420DA6EDF92A751020DA90EF32410
:10370800D96E020EF420DA6EDF9471C071F072C0C7
:1037180072F012009451966F9551976F986B996B50
:10372800E80E9603F3CF9AF0F4CF9BF09C6B9D6B59
:103738009703F3509B27F4509C23000E9D23030E00
:103748009603F3509B27F4509C23000E9D23E80E0C
:103758009803F3509C27F4509D23030E9703F350CE
:103768009C27F4509D23000E9603F3509C27F45099
:103778009D23E80E9903F3509D27030E9803F350F9
:103788009D27000E9703F3509D27000E9603F350D4
:103798009D279AC0CCF29BC0CDF29CC0CEF29DC0B2
:1037A800CFF29451951127E10201E7517FEC3AF0ED
:1037B800020103950001A26B18D0A251020DA80EB8
:1037C800F324D96E020EF420DA6E020EDE180BE135
:1037D800A251020DA80EF324D96E020EF420DA6E5F
:1037E800DF680201A7070001A22B0201A75100010F
:1037F800A25DE3E312000201038502A91200CF5182
:1038080006E1CC29FF0ECD590F0ECE5919E3CCC2D3
:1038180064F0CDC265F0CEC266F0CFC267F07D0E0F
:103828000001686F696B6A6B6B6B35EC30F00C0EDE
:10383800D8906437653766376737E82EF9D720D0D0
:10384800CCC296F0CDC297F0CEC298F0CFC299F014
:103858000C0ED89000019637973798379937E82E8D
:10386800F8D796C064F097C065F098C066F099C024
:1038780067F07D0E686F696B6A6B6B6B35EC30F0C7
:1038880064C09EF065C09FF066C0A0F067C0A1F05C
:103898009EC071F09FC072F0A0C073F0A1C074F018
:1038A8000201E75144EC36F00201E75135EF2EF002
:1038B8007FC075F180C076F181C077F182C078F160
:1038C800A80E0101796F610E7A6F7B6B7C6B500ECD
:1038D8007D6FC30E7E6F7F6B806B010E8D6F070E41
:1038E8008F6F010E906F966F976B826B080E816FCA
:1038F8000C0E8E6F010E916F926B956BC10E846FDB
:10390800940E856FC10E866F030E8C6F340E836F15
:10391800986B996B7DC09AF17EC09BF1936B946B09
:10392800800EA76F980E9F6F3A0EA06FA16BA26BC7
:10393800020EA86F0B0EA96F120EAA6FA46BA56BCF
:10394800A35123E1A9EC30F001019C6FA9EC30F000
:1039580001019D6FA9EC30F001019E6F5A0E000124
:10396800646F6F0E656F666B01019D512EEC38F028
:10397800C20E646F6B0E656F666B01019E512EEC73
:1039880038F0010E0101A36F0BD09C517FEC3AF087
:1039980001019D517FEC3AF001019E517FEC3AF014
:1039A800E2EC37F0000E0001696F010E6A6F8FECD0
:1039B80028F075C171F076C172F077C173F078C1E3
:1039C80074F021EC28F0420E0001666F3B0E17ECF4
:1039D8003AF03B0E30EC39F0836F83BBFAD7230EF5
:1039E800666F0C0E17EC3AF01E0E0001666F0D0E96
:1039F80017EC3AF0AA0E0001666F1F0E17EC3AF0AA
:103A08008F0E0001666F350E17EC3AF000016669FB
:103A1800320E17EC3AF0400E0001666F310E17ECCB
:103A28003AF0010E0001696F6A6F000E8FEC28F002
:103A380000016669230E17EC3AF0420E30EC39F0BB
:103A48000101A66F12003F0E30EC39F0DC6FDCA7E5
:103A580012008DC169F0000E6A6F8FEC28F0010129
:103A680098919E517FEC3AF0010198B912009C514F
:103A780085EC36F08E5107E11F0E8B5DAC0E8C592C
:103A8800DF0E8D5946E301019C5185EC36F00D0E91
:103A980005D0D8908E338D338C338B33E82EF9D7FD
:103AA8007D0E8B03F3CFD0F0F4CFD1F0D26BD36B74
:103AB8008C03F350D127F450D223000ED3238B0369
:103AC800F350D127F450D223000ED3237D0E8D035B
:103AD800F350D227F450D323000E8C03F350D2278F
:103AE800F450D323000E8B03F350D227F450D32382
:103AF8007D0E8E03F350D327000E8D03F350D3278A
:103B0800000E8C03F350D327000E8B03F350D327FA
:103B180045D001019C5185EC36F07D0E8B03F3CF27
:103B2800D0F0F4CFD1F0D26BD36B8C03F350D12704
:103B3800F450D223000ED3238B03F350D127F45033
:103B4800D223000ED3237D0E8D03F350D227F450D9
:103B5800D323000E8C03F350D227F450D323000E46
:103B68008B03F350D227F450D3237D0E8E03F350EA
:103B7800D327000E8D03F350D327000E8C03F35088
:103B8800D327000E8B03F350D3270D0E05D0D89002
:103B9800D333D233D133D033E82EF9D7D0C0D8F0CD
:103BA800D1C0D9F0D2C0DAF0D3C0DBF0D8512008A8
:103BB800D46F4E0ED955D56F000EDA55D66F000E5C
:103BC800DB55D76F01019C517FEC3AF0D4C09EF0D1
:103BD800D5C09FF099EF05F001019E517FEC3AF0B6
:103BE800080E666F120E17EC3AF08DC169F0000EE0
:103BF80000016A6F8FEC28F00101989198B91200C2
:103C08009C5185EC36F08E5107E11F0E8B5DAC0E92
:103C18008C59DF0E8D5946E301019C5185EC36F035
:103C28000D0E05D0D8908E338D338C338B33E82E20
:103C3800F9D77D0E8B03F3CFD0F0F4CFD1F0D26B50
:103C4800D36B8C03F350D127F450D223000ED32327
:103C58008B03F350D127F450D223000ED3237D0ECB
:103C68008D03F350D227F450D323000E8C03F35066
:103C7800D227F450D323000E8B03F350D227F450ED
:103C8800D3237D0E8E03F350D327000E8D03F350FC
:103C9800D327000E8C03F350D327000E8B03F35069
:103CA800D32745D001019C5185EC36F07D0E8B035E
:103CB800F3CFD0F0F4CFD1F0D26BD36B8C03F350A9
:103CC800D127F450D223000ED3238B03F350D127EE
:103CD800F450D223000ED3237D0E8D03F350D22748
:103CE800F450D323000E8C03F350D227F450D3237F
:103CF800000E8B03F350D227F450D3237D0E8E038E
:103D0800F350D327000E8D03F350D327000E8C03F6
:103D1800F350D327000E8B03F350D3270D0E05D095
:103D2800D890D333D233D133D033E82EF9D7D0C09B
:103D3800D8F0D1C0D9F0D2C0DAF0D3C0DBF0D85176
:103D48002008D46F4E0ED955D56F000EDA55D66FB0
:103D5800000EDB55D76FD4C09EF0D5C09FF099EF09
:103D680005F020EE01F06451D9266551DA22DF50C2
:103D7800666F20EE05F06451D9266551DA2200EE0F
:103D880001F06451E9266551EA22DFCFEFFF20EE0A
:103D980009F06451D9266551DA2200EE05F0645124
:103DA800E9266551EA22DFCFEFFF20EE0DF06451DE
:103DB800D9266551DA2200EE09F06451E9266551E9
:103DC800EA22DFCFEFFF20EE0DF06451D9266551CE
:103DD800DA2266C0DFFF20EE02F06451D926655171
:103DE800DA22DF50666F20EE0AF06451D926655159
:103DF800DA2200EE02F06451E9266551EA22DFCFAB
:103E0800EFFF20EE0AF06451D9266551DA2266C028
:103E1800DFFF20EE0EF06451D9266551DA22DF501B
:103E2800666F20EE06F06451D9266551DA2200EE5D
:103E38000EF06451E9266551EA22DFCFEFFF20EE4C
:103E480006F06451D9266551DA2266C0DFFF20EEFC
:103E580003F06451D9266551DA22DF50666F20EEEF
:103E68000FF06451D9266551DA2200EE03F064514F
:103E7800E9266551EA22DFCFEFFF20EE0BF064510F
:103E8800D9266551DA2200EE0FF06451E926655112
:103E9800EA22DFCFEFFF20EE07F06451D926655103
:103EA800DA2200EE0BF06451E9266551EA22DFCFF1
:103EB800EFFF20EE07F06451D9266551DA2266C07B
:103EC800DFFF12000001A36F0201F00502E1BEEC62
:103ED80034F0340E0201F46FF451B7EC3BF00201F8
:103EE800026B036B046B056BDD69DE6BC86BC96B1A
:103EF800CA6BCB6BD46BD56B0A6B0B6B0C6B0D6BF6
:103F0800066B076B086B096BD26BD36BDC6B010E0E
:103F1800DB6FD06BD16BEE6BEF6BC86BC96BCA6B89
:103F2800CB6B0395026B036B046B056B006B016B2A
:103F3800070ED76FD66B010ED96FD86FE069A3C093
:103F4800A4F2126B100EED6F0001A3511AE1FF0EDF
:103F58007D6F050E7E6FA00E7F6F270E806FBE0EE1
:103F6800816F330E826F5CEC1CF0B6EC31F002010D
:103F78001C6B080E186FE60E196FD30E1A6F330EEE
:103F880019D0FF0E7D6F050E7E6F200E7F6FA20E7B
:103F9800806FD30E816F190E826F5CEC1CF0E9EC18
:103FA80031F002011C6B280E186F760E196FE80E9F
:103FB8001A6F190E1B6F010EE16FDF6B46EC2BF0C9
:103FC8000201A56BA66B1D0E0001646F020E656FE2
:103FD800676B666B696B690E686FE0EC38F0030E0F
:103FE8000201956FE80E946F070E976FD00E966FCB
:103FF800130E996F880E986F170E9B6F700E9A6F3D
:10400800070EA16FD00EA06F200EA36F400EA26FF7
:104018009D6F9C6B9F6F9E6B0001956B946B8EEFF1
:104028001BF0050EE126000EE222020103A103A502
:1040380029D0FF0EE36A0ED0FF0EE350020DA80E42
:10404800F324D96E020EF420DA6E020EDE1808E0B0
:10405800FF0EE32AFF0EE3CF4BF0A7514B5CECE3D6
:10406800FF0EE350A7190EE1A751020DA80EF32485
:10407800D96E020EF420DA6E020EDF6E100EA76102
:1040880001D0A72B03A574D0CF5106E1CC29FF0E90
:10409800CD590F0ECE5921E3CCC264F0CDC265F0E4
:1040A800CEC266F0CFC267F07D0E0001686F696B03
:1040B8006A6B6B6B35EC30F064C052F065C053F03E
:1040C80066C054F067C055F00C0ED890523653367F
:1040D80054365536E82EF9D728D0CCC252F0CDC286
:1040E80053F0CEC254F0CFC255F00C0ED8905236D1
:1040F800533654365536E82EF9D752C064F053C0BB
:1041080065F054C066F055C067F07D0E0001686F19
:10411800696B6A6B6B6B35EC30F064C052F065C04C
:1041280053F066C054F067C055F0FB0E52C0E3FF71
:10413800FC0E53C0E3FFFD0E54C0E3FFFE0E55C056
:10414800E3FFE150FB0FD96EE250DA6EFF0EDA2280
:10415800DECF71F0DECF72F0DECF73F0DECF74F019
:104168000201E75144EC36F00201E75135EC2EF03C
:10417800FA0EE126FF0EE222FF0CB86BB96BA639E6
:104188000F0BB76F010EB86F51D0A8C06EF0A9C061
:104198006FF0AAC070F0ABC071F0B8C072F0010E39
:1041A800736FB1C074F0A751A0EC2BF0AB0E906FF9
:1041B800010E916FACC092F0ADC093F009EC39F0EC
:1041C800B96BAE51AF25D96E000EB021DA6EB85179
:1041D800B26FB36BB23BB33BF00EB317B2510F0BD8
:1041E800B313F00EB217A4C0B4F0A5C0B5F0B25125
:1041F800B427B351B523B951B427000EB523F00E37
:10420800B425E96EFF0EB521EA6EEF50B66FAB0E1E
:10421800B925E96EEA6A010EEA22EF50B619DF6E97
:10422800AE2BB92B0F0EB965CCD7B82BB851B75DEB
:10423800ACE2A6C0B2F00F0EB217D8B40F0CA8C0EB
:104248006EF0A9C06FF0AAC070F0ABC071F0B8C032
:1042580072F0010E736FB1C074F0A751A0EC2BF08F
:10426800AB0E906F010E916FACC092F0ADC093F0A1
:1042780009EC39F0B96B23D0AE51AF25D96E000ED9
:10428800B021DA6EB751100DA4C0B2F0A5C0B3F0DA
:10429800F350B227F450B323B951B225E96E000E9A
:1042A800B321EA6EEF50B46FAB0EB925E96EEA6A36
:1042B800010EEA22EF50B419DF6EAE2BB92BA6C05F
:1042C800B2F00F0EB217B251B95DD6E3120070C04A
:1042D800D9FF71C0DAFFDF50766F704B712B70C059
:1042E800D9FF71C0DAFFFF0EDE14726FFF0EDE1405
:1042F800736FFF0EDE14746F000EDE14756F72C0DC
:1043080064F073C065F074C066F075C067F0640E41
:10431800686F696B6A6B6B6B79EC2EF064C072F036
:1043280065C073F066C074F067C075F0030E70273F
:10433800000E712372C064F073C065F074C066F03B
:1043480075C067F070EC33F000090AE10201A7516B
:10435800020DA90EF324D96E020EF420DA6EDF8660
:10436800000176510F0B1FEC3BF000090AE1020136
:10437800A751020DA90EF324D96E020EF420DA6EAD
:10438800DF8800017639070B15EC3BF000090AE1DC
:104398000201A751020DA90EF324D96E020EF420D2
:1043A800DA6EDF8A0201A751020DA90EF324D96E35
:1043B800020EF420DA6EDFA829D0A751020DA90E4B
:1043C800F324D96E020EF420DA6EDFA61FD0A751AF
:1043D800020DA90EF324D96E020EF420DA6EDFAABC
:1043E80015D000017639070B0201EF6F72C064F037
:1043F80073C065F074C066F075C067F0000176514F
:104408000F0B686FFFEC3AF00201038F70C070F079
:1044180071C071F012000001986999699A699B69E5
:104428009C6B5BD000019C510E0D040EF324D96ED9
:10443800040EF420DA6EDE044EE19C510E0D080ED7
:10444800F324D96E040EF420DA6EDE50DE10DE108E
:10445800DE1041E09C510E0D080EF324D96E040EB7
:10446800F420DA6EDE50985DDE509959DE509A5984
:10447800DE509B5930E39C510E0D050EF324D96E86
:10448800040EF420DA6EDF500F0B946F9451020182
:10449800DF5D21E300019C510E0D050EF324D96E5A
:1044A800040EF420DA6EDF380F0B946F0201DF512F
:1044B8000001945D10E39C510E0D080EF324D96E93
:1044C800040EF420DA6EDECF98F0DECF99F0DECF5E
:1044D8009AF0DECF9BF000019C2B9C510201ED5D10
:1044E800A1E20251F00B0609026F98C094F099C03E
:1044F80095F09AC096F09BC097F00C0ED8900001EA
:104508009437953796379737E82EF8D794C064F0E4
:1045180095C065F096C066F097C067F07D0E686F2D
:10452800696B6A6B6B6B35EC30F064C071F065C019
:1045380072F066C073F067C074F00201E65144EC93
:1045480036F00201E65135EF2EF0E652E652E65219
:10455800E652020100950289F00E0217D06BD16B6A
:10456800EE6B03A574D0CF5106E1CC29FF0ECD59CF
:104578000F0ECE5921E3CCC264F0CDC265F0CEC295
:1045880066F0CFC267F07D0E0001686F696B6A6BD9
:104598006B6B35EC30F064C052F065C053F066C008
:1045A80054F067C055F00C0ED89052365336543636
:1045B8005536E82EF9D728D0CCC252F0CDC253F0E8
:1045C800CEC254F0CFC255F00C0ED89052365336A6
:1045D80054365536E82EF9D752C064F053C065F00A
:1045E80054C066F055C067F07D0E0001686F696BB6
:1045F8006A6B6B6B35EC30F064C052F065C053F0F9
:1046080066C054F067C055F0FC0E52C0E3FFFD0EC3
:1046180053C0E3FFFE0E54C0E3FFFF0E55C0E3FF97
:10462800E150FC0FD96EE250DA6EFF0EDA22DECFCF
:1046380071F0DECF72F0DECF73F0DECF74F00201DE
:10464800E75144EC36F00201E75135EC2EF0010158
:10465800705171110EE021EE70F001D80AD00500FA
:10466800FA6EDE50FD6EDE50FE6EF850FF6EFA50A8
:10467800010CFB0EE126FF0EE222FF0C0001EA6BA3
:10468800E00E646F040E656F676B666B010E696FF1
:104698000F0E686FE0EC38F01F0EE917FC0EE917F3
:1046A800E30EE91724EEE0F0E9C0DFFFEA2BEB6B3D
:1046B800EB515908D96E000ED8A0E82A0208DA6E24
:1046C800E00EE36F040EE46FEA51E327000EE423E3
:1046D800EB51E325E96E000EE421EA6EDFCFEFFF30
:1046E800EB2B070EEB65E4D7080EEA27EB6BEB51D3
:1046F8006108D96E000ED8A0E82A0208DA6EE00E2A
:10470800E36F040EE46FEA51E327000EE423EB5154
:10471800E325E96E000EE421EA6EDFCFEFFFEB2B15
:10472800070EEB65E4D7080EEA277869776989EC04
:1047380039F077C0D2F278C0D3F2E00EEA25646F80
:10474800656B040E6523D20E666F020E676F696B88
:10475800020E686FCAEC33F0020EEA27420EDA6FD7
:10476800020EDB6FE00EDC6F040EDD6FEAC0DEF0D8
:104778001EEC34F0DAC0E5F0DBC0E6F0DCC0E7F0B0
:10478800DDC0E8F0E00EEA25646F656B040E652372
:10479800E50E666F676B696B040E686FCAEC33F0E1
:1047A800040EEA27EA511200666F000166510E0DE9
:1047B800040EF324D96E040EF420DA6E64C0DFFF11
:1047C80066510E0D040EF324D96E040EF420DA6E31
:1047D800DF500CE166510E0D080EF324D96E040E5D
:1047E800F420DA6EDE6ADE6ADE6ADD6A676B4ED056
:1047F80067510E0D050EF324D96E040EF420DA6EFF
:10480800DF500F0B0001656F0201EB510001655D80
:1048180016E267510E0D040EF324D96E040EF4202F
:10482800DA6EDE040CE167510E0D050EF324D96E25
:10483800040EF420DA6EDF500F0B0201EB6F00015B
:1048480067510E0D050EF324D96E040EF420DA6EAE
:10485800DF380F0B0201EC6117D0000167510E0D14
:10486800040EF324D96E040EF420DA6EDE040CE193
:1048780067510E0D050EF324D96E040EF420DA6E7E
:10488800DF380F0B0201EC6F0001672B0201ED51BD
:104898000001675DADE30201DF51EC5D02E2ECC2AD
:1048A800DFF2EB51DF5DD8A0EBC2DFF2120021EEA0
:1048B800BDF000EEABF00F0EDBCFEBFFE806FCE23D
:1048C800BB0E646F656B676B666B696B100E686F08
:1048D800E0EC38F0BB0E906F916BA4C092F0A5C0CD
:1048E80093F009EC39F0BBBF0CD0BB0E646F656B5D
:1048F800A6C066F0A7C067F0100E686F30EC35F000
:104908001ED0BB0E646F656BA6C066F0A7C067F0CB
:10491800100E686F30EC35F0CB6BCB51AB0FD96E06
:10492800DA6ADF50AA6FCB51A625D96E000EA721EF
:10493800DA6EAA51DF1ACB2B0F0ECB65EED7A6C0C5
:10494800D9FFA7C0DAFFDFBE0CD0A6C064F0A7C0AD
:1049580065F0A8C066F0A9C067F0100E686F30EF68
:1049680035F0A6C064F0A7C065F0A8C066F0A9C07D
:1049780067F0100E686F30EC35F0CB6BCB51A82583
:10498800D96E000EA921DA6ECB51AB0FE96EEA6A37
:10499800EF50AA6FCB51A825E96E000EA921EA6E47
:1049A800EF50AA19DF6ECB2B0F0ECB65E7D70F0C94
:1049B800E652020103B175D0D951D75D54E365ECD5
:1049C80036F0556E0D0E5526FF0E55C0E3FFE35029
:1049D8004B6E4C6A0201D4514B5CD5514C5833E3B1
:1049E800010EE2EC32F000092BE1F00E946F040E98
:1049F800956FD4C296F0F9EC17F094C04BF095C0BF
:104A08004CF04B504C101CE102010251F00B010913
:104A1800026FD92BD9B147D0DF5145E0D9514B6E40
:104A28004C6AD751546E556A542A000E55224B5081
:104A3800541803E14C50551836E000EC2DF033D0F3
:104A480017EC31F030D04BEC3BF001016E516F1197
:104A58002AE0000E0001646F656F666F040E676FD1
:104A680001D821D013D0D951D75D1DE203B11BD095
:104A78004BEC3BF001016E516F1115E0000E000187
:104A8800646F656F666F676F01D80DD0050001010F
:104A9800FA6E6E51FD6E6F51FE6EF850FF6EFA5051
:104AA80012004BEC3BF0E552E5521200666F070E20
:104AB8000201EB6FEC6B000166510E0D050EF3243D
:104AC800D96E040EF420DA6E64C0DFFF66510E0D55
:104AD8000D0EF324D96E040EF420DA6E000EDB827C
:104AE800676B4ED067510E0D050EF324D96E040E78
:104AF800F420DA6EDF500F0B0001656F0201EB51F5
:104B08000001655D16E267510E0D040EF324D96E9F
:104B1800040EF420DA6EDE040CE167510E0D050E6A
:104B2800F324D96E040EF420DA6EDF500F0B020165
:104B3800EB6F000167510E0D050EF324D96E040EBC
:104B4800F420DA6EDF380F0B0201EC6117D0000198
:104B580067510E0D040EF324D96E040EF420DA6E9C
:104B6800DE040CE167510E0D050EF324D96E040E18
:104B7800F420DA6EDF380F0B0201EC6F0001672BAF
:104B88000201ED510001675DADE30201DF51EC5D0B
:104B980002E2ECC2DFF2EB51DF5DD8A0EBC2DFF23C
:104BA800120000018669876988698969C5EC26F061
:104BB8006AC082F06BC083F06CC084F06DC085F071
:104BC8008A6B5AD08A51080D040EF324D96E030E4D
:104BD800F420DA6EDE044FE18A51080D000EF3244A
:104BE800D96E030EF420DA6EDE50825DDE508359F2
:104BF800DE508459DE5085590DE38A51080D000EA8
:104C0800F324D96E030EF420DA6EDE6ADE6ADE6AF9
:104C1800DD6A31D08A51080D000EF324D96E030ED7
:104C2800F420DA6E8251DE5E8351DE5A8451DE5AF8
:104C38008551DE5A8A51080D000EF324D96E030EF1
:104C4800F420DA6E8651DE5C8751DE588851DE58D2
:104C58008951DE5810E28A51080D000EF324D96EEE
:104C6800030EF420DA6EDECF86F0DECF87F0DECFDB
:104C780088F0DECF89F08A2B0101735100018A5D2B
:104C8800A1E386C07AF087C07BF088C07CF089C039
:104C98007DF0120023682468256826683BEC27F01D
:104CA80007C01FF008C020F009C021F00AC022F098
:104CB800276A5AD02750080D040EF324D96E030E24
:104CC800F420DA6EDE044FE12750080D000EF324BD
:104CD800D96E030EF420DA6EDE501F5CDE502058C9
:104CE800DE502158DE5022580DE32750080D000EE3
:104CF800F324D96E030EF420DA6EDE6ADE6ADE6A09
:104D0800DD6A31D02750080D000EF324D96E030E4A
:104D1800F420DA6E1F50DE5E2050DE5A2150DE5A33
:104D28002250DE5A2750080D000EF324D96E030EC8
:104D3800F420DA6E2350DE5C2450DE582550DE580D
:104D48002650DE5810E22750080D000EF324D96EC5
:104D5800030EF420DA6EDECF23F0DECF24F0DECFB0
:104D680025F0DECF26F0272A01017351275CA2E344
:104D780023C017F024C018F025C019F026C01AF077
:104D88001200CAEC39F064C03EF065C03FF0490437
:104D98003DE1496A44503E5C6E6F45503F586F6F25
:104DA800706BD8A070077051716F34506E5D726F60
:104DB80035506F59736F36507059746F3750715939
:104DC800756F38507225766F39507321776F3A5066
:104DD8007421786F3B507521796F000E7625306EFF
:104DE800000E7721316E010E7821326E000E792186
:104DF800336E3EC034F03FC035F0366A376A386AE1
:104E0800396A3A6A3B6A446A456A28D044503E5C2B
:104E18006E6F45503F586F6F706B716B34506E5D9D
:104E2800726F35506F59736F36507059746F3750B1
:104E38007159756F38507225306E39507321316E43
:104E48003A507421326E3B507521336E30503426FF
:104E580031503522325036223350372230C06AF072
:104E680031C06BF032C06CF033C06DF01200DAEC78
:104E780039F001C03EF002C03FF049043DE1496A03
:104E880044503E5C0B6E45503F580C6E0D6AD8A0DE
:104E98000D060D500E6E34500B5C0F6E35500C58CD
:104EA800106E36500D58116E37500E58126E38501D
:104EB8000F24136E39501020146E3A501120156EBD
:104EC8003B501220166E000E1324306E000E142074
:104ED800316E010E1520326E000E1620336E3EC064
:104EE80034F03FC035F0366A376A386A396A3A6A48
:104EF8003B6A446A456A28D044503E5C0B6E455074
:104F08003F580C6E0D6A0E6A34500B5C0F6E3550AC
:104F18000C58106E36500D58116E37500E58126ED0
:104F280038500F24306E39501020316E3A5011200D
:104F3800326E3B501220336E3050342631503522B9
:104F4800325036223350372230C007F031C008F0D3
:104F580032C009F033C00AF012000001826F816B81
:104F680082C077F0786B89EC39F07729836F83C03A
:104F780080F054D0846B47D084510E0D040EF32476
:104F8800D96E040EF420DA6EDE043BE184510E0D76
:104F9800080EF324D96E040EF420DA6EDE50DE100B
:104FA800DE10DE102EE184510E0D050EF324D96EAD
:104FB800040EF420DA6EDF500F0B00017C6F7C5179
:104FC8000201DF5D1EE3000184510E0D050EF3247E
:104FD800D96E040EF420DA6EDF380F0B7C6F0201F5
:104FE800DF5100017C5D0DE379510AE184510E0D1A
:104FF8000C0EF324D96E040EF420DA6EDE0401E1FF
:1050080083070001842B8251845D02E28351B4E15D
:105018008051831903E1090E816F02D08351AAE1FF
:10502800845107E084057AC0D9FF7BC0DAFFDF6EC0
:1050380002D0090E816F8151120071C064F072C0F4
:1050480065F073C066F074C067F0090E0001686F00
:105058003D0E696F6A6B6B6B35EC30F064C079F0AC
:1050680065C07AF066C07BF067C07CF071C064F000
:1050780072C065F073C066F074C067F0090E686F9F
:105088003D0E696F6A6B6B6BB1EC32F064C075F002
:1050980065C076F066C077F067C078F07BC07CF0BA
:1050A8007AC07BF079C07AF0796B77C078F076C0F7
:1050B80077F075C076F0756B75C064F076C065F0F2
:1050C80077C066F078C067F0090E686F3D0E696FAB
:1050D8006A6B6B6B35EC30F064C075F065C076F0C8
:1050E80066C077F067C078F07551792776517A23D2
:1050F80077517B2378517C237BC066F0060E17EC32
:105108003AF07AC066F0070E17EC3AF079C066F00C
:10511800080E17EF3AF06E6F0001695108E1060EAC
:105128006E19D8B41200070E6E1901E11200070EAD
:105138006E17010E691730EC39F06F6F6FAF03D03F
:10514800010E6B6F01D06B6B6F51070B6D6F6B515D
:10515800691918E06D5108E06F51F80B666F010E80
:1051680017EC3AF000016D6B695103E1780E6F1787
:1051780004D06F51780B80096F6F6FC066F0010E15
:1051880017EC3AF000016D516E19D8B412006E5147
:1051980012E06A0510E1410E30EC39F06C6F69518C
:1051A80003E1300E6C1302D0CF0E6C176CC066F0A2
:1051B800410E17EC3AF0F80E00016F176E516F139D
:1051C8006FC066F0010E17EC3AF000016A05D8A42A
:1051D80012006E5105E0EFEC3BF00009FCE0120014
:1051E800010E646F656B666B676BCBEF38F0120E60
:1051F80030EC39F0ED6F700E666F120E17EC3AF066
:105208000001ED51500B500AD8A4120001019E5123
:105218007FEC3AF01C0E30EC39F0EE6F0101915141
:1052280004E00001EDABEEAD37D0130E30EC39F0F1
:105238000101996F0001666B0D0E17EC3AF001EC55
:105248003CF0000EBCEC3BF00001EE6B0DD0EE51D3
:1052580001019A25D96E000E9B21DA6EFF0EBCEC77
:105268003BF0DF6E0001EE2B010199510001EE5D6C
:10527800EEE3FFEC3BF001019885190E30EC39F0B4
:105288000101A76F040E0001646F0101A751F5EC3D
:1052980033F00101A76F02D0010198878DC169F031
:1052A800000E00016A6F8FEC28F0010198939AC1F3
:1052B8006BF19BC16CF199C16DF14AEF00F00001EF
:1052C8006A6F0101925127E100016A51800A830F38
:1052D80002E2FD0E6A6F6A51800A700F02E30F0E38
:1052E8006A6F4D0E30EC39F0696FF80E69176985F1
:1052F80069C066F04D0E17EC3AF000016AAF05D0B0
:10530800030E6A276A51200902D06A517009666F34
:10531800090E17EF3AF000016A51800A7E0F02E287
:10532800020E6A6F6A51800A6C0F02E3140E05D0F0
:105338006A51800A6E0F02E3110E6A6F0B0E30EC91
:1053480039F0686F4D0E30EC39F0696FF80E691757
:10535800140E6A1906E1070E69130F0E6A6F689B2F
:1053680004D06985FE0E6A27688B69C066F04D0E09
:1053780017EC3AF000016A518009666F090E17ECC4
:105388003AF068C066F00B0E17EF3AF0020103B16D
:1053980057D0E9EC3BF0556E55B24ED002010251A0
:1053A800F00B0509026F08EC3AF0ECEC3BF018C280
:1053B80076F019C277F01AC278F01BC279F00201B0
:1053C8001C511DEC39F0020112512FE1850E1C25EC
:1053D800F66EF76A7F0EF7220800F5500001946F09
:1053E800956B01EC16F094C04BF095C04CF04B5007
:1053F8004C102EE04BEC3BF044EC3BF001016E51BD
:105408006F1126E0000E0001646F656F666F676FAD
:1054180001D81ED005000101FA6E6E51FD6E6F5164
:10542800FE6EF850FF6EFA5012000251F00B090997
:10543800026F81EC31F00CD0010E0201F16F08D03F
:1054480000A502D00095029944EC3BF04BEC3BF0F0
:10545800E5521200E76F020103A102BF120002A980
:1054680012000001E15103E1E45101E0120065EC92
:1054780036F0E56FE451E55D01E21200020106290C
:1054880008E1072906E1082904E1092902E1048362
:10549800120002510F0B03E0125101E11200010E3C
:1054A800E2EC32F0E66FE65101E01200020E020172
:1054B800121902E108EC3AF0E1C066F1E2C067F1C6
:1054C800E3C068F1E4C069F101016A6B0001E751CA
:1054D800A3EC0DF0F00E0001946F040E956FD4C28A
:1054E80096F0F9EC17F094519511D8A41200020126
:1054F800062B000E0723082309230001E70502E114
:10550800020100810201008B0251F00B0109026FB8
:10551800120071EC3AF0F28EF28C8B8E200E0001A4
:10552800A46F780EA56FC60EA66F770EA76F41EC15
:1055380033F0DD0E00016E6F010E6F6F8CEC38F0EA
:10554800CD0E00016E6F010E6F6FA1EC38F0800E6A
:105558000001646F650E656F000E666B676BC3ECC8
:105568003AF0010EEFEC2DF003D001EC37F08B9EF2
:1055780001017251FAE00001F56B050EF46F01ECC0
:1055880037F00001F44BF52BF5BF0BD0F55103E1D3
:105598000B0EF45D06E3F46BF56B79EC35F09AECE1
:1055A80039F00001F66BF76B060EF36F300EE82E3C
:1055B800FED7F32FFCD700D00001F64BF72BF7BF2F
:1055C800F3D7E80EF65D030EF759D9E2EDD7520E80
:1055D8000001646F590E656F666B0201E2512EEC93
:1055E80038F0940E646F530E656F666B0201E351D9
:1055F8002EEC38F02A0E646F400E656F666B020160
:10560800E7512EEC38F0520E646F590E656F666BD9
:105618000201E4512EEC38F0940E646F530E656F5E
:10562800666B0201E5512EEC38F0B80E646F490E36
:10563800656F666B0201E8512EEC38F0D40E646F8A
:10564800730E656F666B0201E6512EEC38F0C20EE0
:10565800646F610E656F666B0201EA512EEC38F0DB
:10566800520E646F450E656F666B0201F3512EECA6
:1056780038F0280E646F240E656F666B0201E951DD
:105688002EEF38F0070EEB6FEC6B0001656B4ED018
:1056980065510E0D050EF324D96E040EF420DA6E52
:1056A800DF500F0B0001646F0201EB510001645DD4
:1056B80016E265510E0D040EF324D96E040EF42083
:1056C800DA6EDE040CE165510E0D050EF324D96E79
:1056D800040EF420DA6EDF500F0B0201EB6F0001AD
:1056E80065510E0D050EF324D96E040EF420DA6E02
:1056F800DF380F0B0201EC6117D0000165510E0D68
:10570800040EF324D96E040EF420DA6EDE040CE1E4
:1057180065510E0D050EF324D96E040EF420DA6ED1
:10572800DF380F0B0201EC6F0001652B0201ED5110
:105738000001655DADE31200756F0001766BAB0E7D
:10574800646F010E656F676B666B696B100E686F2F
:10575800E0EC38F073C0ABF1050E7627AB0E76257A
:10576800D96EDA6A010EDA2275C0DFFF762B745122
:1057780012E1AB0E7625646F656B010E65231E0E74
:10578800666F020E676F696B040E686FCAEC33F0C0
:10579800040E762710D0AB0E7625646F656B010E6C
:1057A8006523620E666F020E676F696B040E686F81
:1057B800CAEC33F0EDD7AB0E7625646F656B010E3E
:1057C80065236E0E666F676B696B040E686FCAECB3
:1057D80033F0040E7627762BAB0E7625D96EDA6A6F
:1057E800010EDA2272C0DFFF1200F29E0001EC6B9C
:1057F8004DD0EC51080D040EF324D96E030EF4209D
:10580800DA6EDE0441E1EC51080D000EF324D96E86
:10581800030EF420DA6EDE50DE10DE10DE1034E106
:10582800EC51080D040EF324D96E030EF420DA6E41
:10583800DF6AEC51080D060EF324D96E030EF4202E
:10584800DA6EDE50DE1020E0F28EEC51080D050E07
:10585800F324D96E030EF420DA6EDF50E66EEC51B5
:10586800080D060EF324D96E030EF420DA6E01D863
:105878000AD00500FA6EDE50FD6EDE50FE6EF8505E
:10588800FF6EFA501200F29E0001EC2B01017351D9
:105898000001EC5DAEE3F28E120000016A6B6B6BE7
:1058A8004DD06B51020DA80EF324D96E020EF420D0
:1058B800DA6EDE2842E0FE0E646F65696B51020DF8
:1058C800A80EF324D96E020EF420DA6EDF50666F4C
:1058D800676B6451662765516723940E6625F66EDB
:1058E8007F0E6721F76E0800F5506AC068F0696B93
:1058F8006827000E692369BF05D0695124E1100E9D
:10590800685D21E2FE0E646F65696B51020DA80E99
:10591800F324D96E020EF420DA6EDF50666F676BDF
:105928006451662765516723940E6625F66E7F0ECF
:105938006721F76E0800F5506A276B2B0201A75103
:1059480000016B5DAEE36A511200E652E652E65280
:10595800E652020103B14BD0020E121902E108EC23
:105968003AF00201EF51175D04E3EF51175D176F2D
:1059780001D0176B33EC3BF064C052F065C053F0B4
:1059880066C054F067C055F0FC0E52C0E3FFFD0E30
:1059980053C0E3FFFE0E54C0E3FFFF0E55C0E3FF04
:1059A8000251F00B0309026FECEC3BF0E150FC0FE5
:1059B800D96EE250DA6EFF0EDA22DECF76F0DECF55
:1059C80077F0DECF78F0DECF79F0020117511DECC9
:1059D80039F0850E02011725F66EF76A7F0EF72259
:1059E8000800F5500001946F956B01EC16F0FB0E62
:1059F800E126FF0EE222FF0C0001656B0201DF5178
:105A0800EB5D4AE2DF050001676F3AD0666B2BD089
:105A180066510E0D050EF324D96E040EF420DA6ECD
:105A2800DF500F0B0001646F6451675D1BE3665123
:105A38000E0D050EF324D96E040EF420DA6EDF384D
:105A48000F0B646F6751645D0DE366510E0D040E14
:105A5800F324D96E040EF420DA6EDE0403E1010E9D
:105A6800656F06D0662B0201ED510001665DD0E33B
:105A7800655106E167510201EB5D02E2000167072B
:105A88000001655105E10201EB510001675DBEE2CD
:105A9800650502E167C0DFF20001655112003F0EA3
:105AA80030EC39F0ED6FEDA5120001019E517FEC4D
:105AB8003AF001019D517FEC3AF001EC3CF0000E08
:105AC800BCEC3BF0FF0EBCEC3BF00101996F000110
:105AD800EE6B0DD0EE5101019A25D96E000E9B2177
